:060000000A128A110E280D
:10000800FE00030EF1000408F2000A08F3000A12C9
:100018008A11062D0A128A11E52D0A128A11B725AE
:100028000A128A110A128A117E250A128A110A12E4
:100038008A110A260A128A110A128A1121260A121C
:100048008A110B178B17F701F801E201E301D601BA
:10005800D701851564000A128A1136220A128A11FC
:10006800D600D7015708B0005608AF000A30B100D3
:100078006430B2010A128A1155240A128A112B30EF
:10008800D0006408D1006508D2006608D300433068
:10009800D400D5015708803AFF0080307F02031D45
:1000A800572864305602031866282B30831203132E
:1000B800D0003030D1006408D2006508D300433046
:1000C800D400D501831203135708803AFF0080300B
:1000D8007F02031D71280A30560203187F282B302F
:1000E80083120313D0003030D100D2006408D3004B
:1000F8004330D400D50183120313D71F8E28640818
:10010800D0003030D1006508D2006608D3004330F3
:10011800D400D5015708803AFF007F307F02031DC5
:100128009728F7305602031CA72883120313D71FFA
:10013800A7286408D0003030D100D2006508D30069
:100148004330D400D50183120313CF014F08503E2A
:100158008400831380080319BF284F08503E840089
:1001680000080A128A1154260A128A110630CF0A88
:100178004F02031CAA280230CE004530CD00A9301A
:10018800CC00CC0BC528CD0BC528CE0BC528CC2858
:10019800023083120313CE004530CD00A930CC00C5
:1001A800CC0BD428CD0BD428CE0BD428DB28023096
:1001B80083120313CE004530CD00A930CC00CC0B00
:1001C800E328CD0BE328CE0BE328EA28023083127C
:1001D8000313CE004530CD00A930CC00CC0BF2285B
:1001E800CD0BF228CE0BF228F92802308312031324
:1001F800CE004530CD00A930CC00CC0B0129CD0B69
:100208000129CE0B01290829023083120313CE00DD
:100218004530CD00A930CC00CC0B1029CD0B1029CE
:10022800CE0B10291729023083120313CE00453054
:10023800CD00A930CC00CC0B1F29CD0B1F29CE0B2C
:100248001F292629023083120313CE004530CD0022
:10025800A930CC00CC0B2E29CD0B2E29CE0B2E2964
:1002680035296400023083120313CE004530CD00D7
:10027800A930CC00CC0B3E29CD0B3E29CE0B3E2914
:100288004529023083120313CE004530CD00A93032
:10029800CC00CC0B4D29CD0B4D29CE0B4D29542923
:1002A800023083120313CE004530CD00A930CC00B4
:1002B800CC0B5C29CD0B5C29CE0B5C296329023061
:1002C80083120313CE004530CD00A930CC00CC0BEF
:1002D8006B29CD0B6B29CE0B6B2972290230831247
:1002E8000313CE004530CD00A930CC00CC0B7A29C1
:1002F800CD0B7A29CE0B7A29812902308312031378
:10030800CE004530CD00A930CC00CC0B8929CD0BCF
:100318008929CE0B89299029023083120313CE0034
:100328004530CD00A930CC00CC0B9829CD0B9829AD
:10033800CE0B98299F29023083120313CE00453033
:10034800CD00A930CC00CC0BA729CD0BA729CE0B0B
:10035800A729AE29831203136308620603192E28FE
:100368000A128A113F260A128A11D800023A031D7E
:10037800C1290230EF00DA01EB296F08023A031DA8
:10038800D2295A086A3E8400580883138000DA0A82
:100398005A08033A031DEB290330BE296F08033AB4
:1003A800031DEB2910305A020318E9295808033AAB
:1003B800031DE1290530EF00E7295A08BE3E8400F5
:1003C800580883138000DA0AEB29EF01EF0A6F0857
:1003D800053A031D2E286A08433A031D332A0A30BA
:1003E800A0006B08D03E0A128A1131260A128A111F
:1003F800D9006C08D03ED907282A05165F080A12CA
:100408008A1154260A128A11332A0512332A8316AE
:100418003E080A128A1154260A128A1183163F08C6
:100428000A128A1154260A128A11831640080A12DF
:100438008A1154260A128A11831641080A128A114F
:1004480054260A128A11332A5908013A0319012A33
:10045800033A0319092A013A03190B2A332AEF012F
:10046800EF0A2E2883120313C701C801CB010030FD
:10047800A8220A128A112008C7070318C80A2108E7
:10048800C8071030CB0A4B02031C3B2A0F30C70E9B
:10049800C80EC7054808F039C7040F30C805C90198
:1004A800CA01CB010130A8220A128A112008C90703
:1004B8000318CA0A2108CA071030CB0A4B02031CCA
:1004C800562A0F30C90ECA0EC9054A08F039C904A0
:1004D8000F30CA054030AB009C30AC004030AD0056
:1004E8004808A9004708A8004908A8024A08031CA8
:1004F800A903A902D9230A128A112808AE002908DB
:10050800AF002A08B0002C230A128A112B08C40055
:100518002C08C5002D08C6004408B8004508B900D5
:100528004608BA002030B501B6004130B700C422F1
:100538000A128A113508A8003608A9003708AA0047
:10054800E9232808CB00080083120313A300A200A4
:10055800A20DA20D1F082206C33922069F009F1470
:100568009F18B42A1E08A400A501A500A40183169B
:100578001E088312A4042508A1002408A00008006E
:100588003808BB003908BC003A08BD0003103C0D10
:100598003D0DC200C208031DD52AB501B601B70139
:1005A80008003508BB003608BC003708BD0003103A
:1005B8003C0D3D0DC300C308031DE62AB501B60175
:1005C800B70108008930BF01C001C1014307BB0062
:1005D800C2023A08C3003708C3068030C305183082
:1005E800B917BA01B617B701BE000310BF0DC00D89
:1005F800C10D37083A02031D072B36083902031DBF
:10060800072B35083802031C152B3508B8023608A5
:10061800031C360FB9023708031C370ABA023F1405
:100628000310B80DB90DBA0DBE0BF92A3F08A0008A
:100638004008A1004108A2004208A3004308A40002
:100648009B232008B5002108B6002208B70008003F
:100658002B08B1002C08B2002D08B3000310320D8E
:10066800330DB400B408031D3D2BAB01AC01AD0143
:1006780008002E08B1002F08B2003008B30003109C
:10068800320D330DB900B908031D4E2BAB01AC0177
:10069800AD01080039087B3EB4072D08B9003008C1
:1006A800B9068030B9050730AC17AF17B001B501EE
:1006B800B601B701B8002B1C692B2E0844240A1276
:1006C8008A110318300A031DB7070310AD0CAC0CD0
:1006D800AB0C0310AE0DAF0DB00DB80B5F2B09308E
:1006E800B8002B1C7F2B2E0844240A128A110318E9
:1006F800300A031DB7070310AD0CAC0CAB0C03108C
:10070800B70CB60CB50CB80B752B3508A00036081D
:10071800A1003708A2003408A3003908A4009B23CD
:100728002008AB002108AC002208AD00080023080F
:100738000319A32B220821042004031DAC2BA001BC
:10074800A101A2010800A30A0310A20CA10CA00C8D
:10075800FE3022050319BB2BA72BA30AA00A0319F5
:10076800A10A0319A20A0310A20CA10CA00CFF30C5
:1007780022050319C52BB12BA3030310A00DA10D4E
:10078800A20DA11FC02B231CA1130310A30C230827
:10079800A700A601A5012508A0042608A10427088A
:1007A800A2042408031DA21708002808A00029088D
:1007B800A1008E30A201A300A4019B232008A80059
:1007C8002108A9002208AA0008004E240A128A114A
:1007D80003102D0D2E0DB400B408031DF82BA8012D
:1007E800A901AA01AB0108004E240A128A11173088
:1007F8000310AE0CAD0CAC0CFF3E031DFC2B2C08FB
:10080800AF00A917AA012808B0002908B1002A08D2
:10081800B2008E30B301B402B41F1F2C3408803AE2
:100828008F3E031CF32B0310B30CB20CB10CB00CAD
:10083800B40F172C2D2C183034020318F32BB408DE
:1008480003192D2C0310B00DB10DB20DB30DB40367
:10085800232C2F0803193B2CB009B109B209B3099D
:10086800B00A0319B10A0319B20A0319B30A330803
:10087800AB003208AA003108A9003008A800080017
:10088800B5072F08031103182F0A031DB6073008F0
:10089800031108002808AC002908AD002A08AE009A
:1008A8000800B400B01F632C340884002D30831373
:1008B8008000B40AAF09B009AF0A0319B00A3008BA
:1008C800A8002F08A7003208AA003108A900340898
:1008D8006D2CAE002808AC002708AB002A08A10040
:1008E8002908A0002C08A3002B08A200B8240A128B
:1008F8008A112108AC002008AB00AE0A2C04031DA5
:10090800722C2E08840083138001AE032A08A100EC
:100918002908A0002808A3002708A200E2240A1238
:100928008A112008AD002A08A1002908A00028087B
:10093800A3002708A200B8240A128A112108A800D7
:100948002008A7000A302D02031CAC2C0730AD0785
:100958003030AD072E0884002D088000AE0328082B
:100968002704031908008A2CA501A60121082004E0
:100978000319DD2CA401A40AA11BC62C0310A00D89
:10098800A10DBF2C0310A50DA60D21082302031DE0
:10099800CF2C20082202031CD92C2008A2022108EF
:1009A800031CA303A30225140310A10CA00CA40B81
:1009B800C62C2608A1002508A0000800210820044C
:1009C8000319012DA401A40AA11BEE2C0310A00DEC
:1009D800A10DE72C21082302031DF42C2008220274
:1009E800031CFD2C2008A2022108031CA303A30258
:1009F8000310A10CA00CA40BEE2C2308A1002208C4
:100A0800A00008008B1A0B1D272D5D3083120313DD
:100A18008100ED0B252D0C30ED00791C1C2DF50304
:100A28007508FF3A031D1C2D0930F5007910F914DB
:100A3800EE0B252D0530EE008316CE0B252D02304A
:100A4800CE000B11522D831603138C1E402D8312DA
:100A58008C1E402D981C322D1812181618191A08B9
:100A68008C1A3A2D5B250A128A11342D1A08F400C3
:100A780064250A128A11522D83160C1E522D8312D8
:100A88000C1E522D770878060319522D7125F40093
:100A980099007408033A831603190C1273088A0024
:100AA80072088400710E8300FE0E7E0E0900831208
:100AB8000313981C612D1812181618191A08080023
:100AC800F0006308903E8400700883178000E30AF2
:100AD80063083C3A0319E30108007708A03E840044
:100AE80083130008F000F70A77081E3A0319F70184
:100AF80070080800071183120711831687108312E4
:100B08008710831686108312861483168812831220
:100B18008816831686118312861583168813831206
:100B2800881783160610831206108316081283127C
:100B380008120330920083168C100C308312970031
:100B48009D0095019B01FF308316920007308312A8
:100B5800A1007D30A000A00BAF2DA10BAF2D8312FB
:100B68000313121508008501860187018801890190
:100B78000317870188017530831603138F008312CA
:100B880003171730871388138500873083160313DC
:100B9800810003178901880107300B118B16031395
:100BA80085008601C030870088010430890005303F
:100BB8008312ED00EE0002308316CE007910F91092
:100BC80008005030F901F501F601F701F801831327
:100BD80084006D300A128A114C260A128A11A0303C
:100BE8008400CE300A128A114C260A128A119030DB
:100BF80083178400CC300A128A114C260130EF008A
:100C08003030FA0083010A128A1111288316071757
:100C18008717181103173330871503139900181213
:100C28008312981718168316981618138312181318
:100C3800981183168C160C120800051485140317D6
:100C480008148814831203139F171F1383169F1702
:100C58009F121F1283121F140800A200A10120086E
:100C68002218A1070310A00D0310A20CA208031D4F
:100C7800332E210808006208903E8400831700087C
:100C8800A000E20A62083C3A0319E20120080800C1
:100C980064008001840A04060319003404064D2EFA
:0E0CA8008312A0000C1E562E20089900080092
:02400E002CE3A1
:104200000A00140019003B0000000000000000003C
:10421000010009000A000B000C000D000E000F0049
:1042200000003C00210021000300300001002000BC
:1042300031003200330034003500360037003800DA
:10424000310030000000000000000000000000000D
:00000001FF
