:060000000A128A110E280D
:10000800FE00030EF6000408F7000A08F8000A12BA
:100018008A115C2B0A128A11002C0A128A11D32326
:100028000A128A110A128A1126240A128A110B1737
:100038008B1783128515BE01BF01640055300A1263
:100048008A1145240A128A1145300A128A11452458
:100058000A128A1152300A128A1145240A128A1188
:1000680044300A128A1145240A128A1145300A12AC
:100078008A1145240A128A114D300A128A11452420
:100088000A128A110A128A11AE210A128A11280844
:10009800BF002708BE003F08B0003E08AF000A3086
:1000A800B1004830B2010A128A11AB220A128A1131
:1000B8002B30B8004808B9004908BA004A08BB0004
:1000C8004330BC001030BD0185060230B700453012
:1000D800B600A930B500B50B6F28B60B6F28B70B63
:1000E8006F287628023083120313B7004530B60014
:1000F800A930B500B50B7E28B60B7E28B70B7E2835
:100108008528023083120313B7004530B600A930A2
:10011800B500B50B8D28B60B8D28B70B8D28942804
:10012800023083120313B7004530B600A930B5007A
:10013800B50B9C28B60B9C28B70B9C28A32802302B
:1001480083120313B7004530B600A930B500B50BCC
:10015800AB28B60BAB28B70BAB28B22802308312FA
:100168000313B7004530B600A930B500B50BBA285F
:10017800B60BBA28B70BBA28C1280230831203136A
:10018800B7004530B600A930B500B50BC928B60B85
:10019800C928B70BC928D028023083120313B70027
:1001A8004530B600A930B500B50BD828B60BD8280D
:1001B800B70BD828DF28023083120313B700453065
:1001C800B600A930B500B50BE728B60BE728B70B82
:1001D800E728EE28023083120313B7004530B60033
:1001E800A930B500B50BF628B60BF628B70BF628DC
:1001F800FD286400023083120313B7004530B600AF
:10020800A930B500B50B0629B60B0629B70B062988
:100218000D29023083120313B7004530B600A93008
:10022800B500B50B1529B60B1529B70B15291C29CF
:10023800023083120313B7004530B600A930B50069
:10024800B50B2429B60B2429B70B24292B290230F6
:1002580083120313B7004530B600A930B500B50BBB
:100268003329B60B3329B70B33293A2902308312C5
:100278000313B7004530B600A930B500B50B4229C5
:10028800B60B4229B70B42294929023083120313BE
:10029800B7004530B600A930B500B50B5129B60BEB
:1002A8005129B70B51295829023083120313B7007B
:1002B8004530B600A930B500B50B6029B60B6029EA
:1002C800B70B60296729023083120313B700453042
:1002D800B600A930B500B50B6F29B60B6F29B70B5F
:1002E8006F297629023083120313B7004530B60010
:1002F800A930B500B50B7E29B60B7E29B70B7E2930
:100308008529023083120313B7004530B600A9309F
:10031800B500B50B8D29B60B8D29B70B8D299429FE
:1003280021288B138D220A128A110830A822A100D5
:10033800A10B9C2982220A128A1118308312A1006B
:10034800A10BA429A7290030A82205190130A20071
:100358008B1708007A1CFA18C4297A141B220A126F
:100368008A11CC30F3210A128A114430F3210A127F
:100378008A11C730A822A900A90BC029C329ED29D1
:10038800FA1CED291B220A128A11CC30F3210A1219
:100398008A11BE30F3210A128A113E220A128A11EA
:1003A800AA003E220A128A11AE00F0390319E72981
:1003B8002E0895220A128A110318AC0A0030AB04E1
:1003C800F030AC04ED292E0895220A128A11031880
:1003D800AC0AA8222C08A8002B08A7000800A8220D
:1003E800A4008B13A6012408A300260AFD290310E4
:1003F800A30CFF3E031DFB292308A5000130A5051A
:10040800250861220A128A116330A822A300A30BCF
:100418000B2A0E2AA8220830A60A2602031CF7294E
:10042800F930A300A30B162A192A8B1708008D226E
:100438000A128A110530A822A2008A30A100A10B55
:10044800232AA20B232A64008B1382220A128A1100
:10045800C7308312A100A10B2F2A322AA82205082F
:100468000530A2008A30A100A10B382AA20B382A35
:1004780064000800A822A4018B13A50195210A1283
:100488008A11003A0319532A0130A300250A4E2A7B
:100498000310A30DFF3E031D4C2A2308A404C730F4
:1004A800A300A30B552A582AA8220830A50A25021A
:1004B800031C422A8B1724080800A2008B138D22E4
:1004C8000A128A110330A822A100A10B692AA822C6
:1004D8002203031D722A82220A128A1163308312B0
:1004E800A100A10B752A782A82220A128A110330E8
:1004F8008312A100A10B7E2A8B170800A8220515DC
:100508000930A000A00B862A892A83160313051533
:100518000800A822051183160511922A932A64005F
:100528000800AB00F030AC01AB0EAC0EAC052B08EC
:100538000F39AC04F030AB052A0E0F39AD000F307F
:10054800AD052D08AB070800831203130800B4009B
:10055800B01FB92A340884002D3083138000B40AF0
:10056800AF09B009AF0A0319B00A3008A8002F086C
:10057800A7003208AA003108A9003408C32AAE002F
:100588002808AC002708AB002A08A1002908A00009
:100598002C08A3002B08A2000E230A128A11210896
:1005A800AC002008AB00AE0A2C04031DC82A2E0894
:1005B800840083138001AE032A08A1002908A00043
:1005C8002808A3002708A20038230A128A11200845
:1005D800AD002A08A1002908A0002808A3002708C0
:1005E800A2000E230A128A112108A8002008A700D9
:1005F8000A302D02031C022B0730AD073030AD073F
:100608002E0884002D088000AE032808270403194B
:100618000800E02AA501A601210820040319332BAC
:10062800A401A40AA11B1C2B0310A00DA10D152BBE
:100638000310A50DA60D21082302031D252B200854
:100648002202031C2F2B2008A2022108031CA3034B
:10065800A30225140310A10CA00CA40B1C2B260824
:10066800A1002508A0000800210820040319572B21
:10067800A401A40AA11B442B0310A00DA10D3D2B1E
:1006880021082302031D4A2B20082202031C532B96
:100698002008A2022108031CA303A3020310A10C33
:1006A800A00CA40B442B2308A1002208A0000800DA
:1006B8008B1A0B1D7C2B5D30831203138100CE0B2C
:1006C8007A2B0C30CE007A1C722BF0037008FF3A9C
:1006D800031D722B0930F0007A10FA14D00B7A2B14
:1006E8000530D000CF0B7A2B0230CF000B11A72B8F
:1006F800831603138C1E952B83128C1E952B981C26
:10070800872B1812181618191A088C1A8F2BB02351
:100718000A128A11892B1A08F900B9230A128A11B8
:10072800A72B83160C1EA72B83120C1EA72B73084E
:1007380074060319A72BC623F90099007908033A10
:10074800831603190C1278088A0077088400760E3D
:100758008300FE0E7E0E090083120313981CB62B2D
:100768001812181618191A080800F5007208903E91
:100778008400750883178000F20A72083C3A03194E
:10078800F20108007308A03E840083130008F500F6
:10079800F30A73081E3A0319F30175080800850166
:1007A800860187018801890103178701880175304F
:1007B800831603138F0083120317173087138813C8
:1007C8008500873083160313810003178901880188
:1007D80007300B118B16031385008601C030870084
:1007E80088010430890005308312CE00D000023021
:1007F800CF007A10FA1008003830FA01F001F10140
:10080800F201F301F401831384004E300A128A11B5
:100818003D240A128A11A0308400BE300A128A11BF
:100828003D240A128A11903083178400CC300A12B2
:100838008A113D240130D1003030D20083010A12E0
:100848008A111128831607178717181103173330D1
:100858008715031399001812831298171816831610
:100868009816181383121813981183168C160C12E5
:10087800080064008001840A040603190034040691
:100888003E2C83120313A0000C1E482C200899004C
:02089800080056
:02400E000CE3C1
:104200000A00140019003B0000000000000000003C
:10421000010009000A000B000C000D000E000F0049
:1042200000003C00210021000300300001002000BC
:1042300031003200330034003500360037003800DA
:10424000310030000000000000000000000000000D
:00000001FF
